{
  "contractName": "DutchAuction",
  "abi": [
    {
      "inputs": [],
      "stateMutability": "nonpayable",
      "type": "constructor"
    },
    {
      "anonymous": false,
      "inputs": [
        {
          "indexed": true,
          "internalType": "uint256",
          "name": "articleIndex",
          "type": "uint256"
        },
        {
          "indexed": true,
          "internalType": "address",
          "name": "bidder",
          "type": "address"
        },
        {
          "indexed": false,
          "internalType": "uint256",
          "name": "amount",
          "type": "uint256"
        }
      ],
      "name": "BidPlaced",
      "type": "event"
    },
    {
      "inputs": [],
      "name": "AUCTION_DURATION",
      "outputs": [
        {
          "internalType": "uint256",
          "name": "",
          "type": "uint256"
        }
      ],
      "stateMutability": "view",
      "type": "function",
      "constant": true
    },
    {
      "inputs": [],
      "name": "PRICE_DECREMENT",
      "outputs": [
        {
          "internalType": "uint256",
          "name": "",
          "type": "uint256"
        }
      ],
      "stateMutability": "view",
      "type": "function",
      "constant": true
    },
    {
      "inputs": [],
      "name": "RESERVE_PRICE",
      "outputs": [
        {
          "internalType": "uint256",
          "name": "",
          "type": "uint256"
        }
      ],
      "stateMutability": "view",
      "type": "function",
      "constant": true
    },
    {
      "inputs": [],
      "name": "STARTING_PRICE",
      "outputs": [
        {
          "internalType": "uint256",
          "name": "",
          "type": "uint256"
        }
      ],
      "stateMutability": "view",
      "type": "function",
      "constant": true
    },
    {
      "inputs": [
        {
          "internalType": "uint256",
          "name": "",
          "type": "uint256"
        }
      ],
      "name": "articles",
      "outputs": [
        {
          "internalType": "string",
          "name": "name",
          "type": "string"
        },
        {
          "internalType": "uint256",
          "name": "currentPrice",
          "type": "uint256"
        },
        {
          "internalType": "address",
          "name": "winningBidder",
          "type": "address"
        },
        {
          "internalType": "bool",
          "name": "closed",
          "type": "bool"
        }
      ],
      "stateMutability": "view",
      "type": "function",
      "constant": true
    },
    {
      "inputs": [],
      "name": "auctionStartTime",
      "outputs": [
        {
          "internalType": "uint256",
          "name": "",
          "type": "uint256"
        }
      ],
      "stateMutability": "view",
      "type": "function",
      "constant": true
    },
    {
      "inputs": [],
      "name": "auctioneer",
      "outputs": [
        {
          "internalType": "address",
          "name": "",
          "type": "address"
        }
      ],
      "stateMutability": "view",
      "type": "function",
      "constant": true
    },
    {
      "inputs": [],
      "name": "currentArticleIndex",
      "outputs": [
        {
          "internalType": "uint256",
          "name": "",
          "type": "uint256"
        }
      ],
      "stateMutability": "view",
      "type": "function",
      "constant": true
    },
    {
      "inputs": [],
      "name": "getCurrentPrice",
      "outputs": [
        {
          "internalType": "uint256",
          "name": "",
          "type": "uint256"
        }
      ],
      "stateMutability": "view",
      "type": "function",
      "constant": true
    },
    {
      "inputs": [
        {
          "internalType": "uint256",
          "name": "articleIndex",
          "type": "uint256"
        }
      ],
      "name": "placeBid",
      "outputs": [],
      "stateMutability": "payable",
      "type": "function",
      "payable": true
    },
    {
      "inputs": [],
      "name": "moveToNextArticle",
      "outputs": [],
      "stateMutability": "nonpayable",
      "type": "function"
    }
  ],
  "bytecode": "0x60806040523480156200001157600080fd5b50336000806101000a81548173ffffffffffffffffffffffffffffffffffffffff021916908373ffffffffffffffffffffffffffffffffffffffff16021790555042600281905550600360405180608001604052806040518060400160405280600981526020017f41727469636c65203100000000000000000000000000000000000000000000008152508152602001670de0b6b3a76400008152602001600073ffffffffffffffffffffffffffffffffffffffff16815260200160001515815250908060018154018082558091505060019003906000526020600020906003020160009091909190915060008201518160000190805190602001906200011a929190620002d1565b506020820151816001015560408201518160020160006101000a81548173ffffffffffffffffffffffffffffffffffffffff021916908373ffffffffffffffffffffffffffffffffffffffff16021790555060608201518160020160146101000a81548160ff0219169083151502179055505050600360405180608001604052806040518060400160405280600981526020017f41727469636c65203200000000000000000000000000000000000000000000008152508152602001670de0b6b3a76400008152602001600073ffffffffffffffffffffffffffffffffffffffff16815260200160001515815250908060018154018082558091505060019003906000526020600020906003020160009091909190915060008201518160000190805190602001906200024f929190620002d1565b506020820151816001015560408201518160020160006101000a81548173ffffffffffffffffffffffffffffffffffffffff021916908373ffffffffffffffffffffffffffffffffffffffff16021790555060608201518160020160146101000a81548160ff02191690831515021790555050506000600181905550620003e5565b828054620002df90620003b0565b90600052602060002090601f0160209004810192826200030357600085556200034f565b82601f106200031e57805160ff19168380011785556200034f565b828001600101855582156200034f579182015b828111156200034e57825182559160200191906001019062000331565b5b5090506200035e919062000362565b5090565b5b808211156200037d57600081600090555060010162000363565b5090565b7f4e487b7100000000000000000000000000000000000000000000000000000000600052602260045260246000fd5b60006002820490506001821680620003c957607f821691505b602082108103620003df57620003de62000381565b5b50919050565b61110680620003f56000396000f3fe60806040526004361061009c5760003560e01c8063d12f702911610064578063d12f702914610155578063dd21d60414610180578063e9561822146101ab578063eb54f9ec146101d6578063eb91d37e14610201578063edcfafe61461022c5761009c565b80635ec2c7bf146100a15780639979ef45146100cc578063a271e525146100e8578063c511166b14610113578063ccadbb401461012a575b600080fd5b3480156100ad57600080fd5b506100b661026c565b6040516100c391906108bb565b60405180910390f35b6100e660048036038101906100e19190610911565b610290565b005b3480156100f457600080fd5b506100fd610569565b60405161010a919061094d565b60405180910390f35b34801561011f57600080fd5b5061012861056f565b005b34801561013657600080fd5b5061013f6106df565b60405161014c919061094d565b60405180910390f35b34801561016157600080fd5b5061016a6106e5565b604051610177919061094d565b60405180910390f35b34801561018c57600080fd5b506101956106f1565b6040516101a2919061094d565b60405180910390f35b3480156101b757600080fd5b506101c06106fd565b6040516101cd919061094d565b60405180910390f35b3480156101e257600080fd5b506101eb610709565b6040516101f8919061094d565b60405180910390f35b34801561020d57600080fd5b5061021661070f565b604051610223919061094d565b60405180910390f35b34801561023857600080fd5b50610253600480360381019061024e9190610911565b610785565b6040516102639493929190610a1c565b60405180910390f35b60008054906101000a900473ffffffffffffffffffffffffffffffffffffffff1681565b6002544210156102d5576040517f08c379a00000000000000000000000000000000000000000000000000000000081526004016102cc90610ada565b60405180910390fd5b610e106002546102e59190610b29565b4210610326576040517f08c379a000000000000000000000000000000000000000000000000000000000815260040161031d90610bf1565b60405180910390fd5b80600380549050811061036e576040517f08c379a000000000000000000000000000000000000000000000000000000000815260040161036590610c5d565b60405180910390fd5b6003818154811061038257610381610c7d565b5b906000526020600020906003020160020160149054906101000a900460ff16156103e1576040517f08c379a00000000000000000000000000000000000000000000000000000000081526004016103d890610cf8565b60405180910390fd5b60003411610424576040517f08c379a000000000000000000000000000000000000000000000000000000000815260040161041b90610d8a565b60405180910390fd5b600061042e61070f565b905080341015610473576040517f08c379a000000000000000000000000000000000000000000000000000000000815260040161046a90610e1c565b60405180910390fd5b336003848154811061048857610487610c7d565b5b906000526020600020906003020160020160006101000a81548173ffffffffffffffffffffffffffffffffffffffff021916908373ffffffffffffffffffffffffffffffffffffffff1602179055506001600384815481106104ed576104ec610c7d565b5b906000526020600020906003020160020160146101000a81548160ff0219169083151502179055503373ffffffffffffffffffffffffffffffffffffffff16837f0e54eff26401bf69b81b26f60bd85ef47f5d85275c1d268d84f68d6897431c473460405161055c919061094d565b60405180910390a3505050565b610e1081565b60008054906101000a900473ffffffffffffffffffffffffffffffffffffffff1673ffffffffffffffffffffffffffffffffffffffff163373ffffffffffffffffffffffffffffffffffffffff16146105fd576040517f08c379a00000000000000000000000000000000000000000000000000000000081526004016105f490610eae565b60405180910390fd5b600160038054905061060f9190610ece565b60015410610652576040517f08c379a000000000000000000000000000000000000000000000000000000000815260040161064990610f4e565b60405180910390fd5b6001600081548092919061066590610f6e565b919050555061067261070f565b60036001548154811061068857610687610c7d565b5b90600052602060002090600302016001018190555060006003600154815481106106b5576106b4610c7d565b5b906000526020600020906003020160020160146101000a81548160ff021916908315150217905550565b60015481565b670de0b6b3a764000081565b6702c68af0bb14000081565b67016345785d8a000081565b60025481565b600080600254426107209190610ece565b90506000603c826107319190610fe5565b905060008167016345785d8a00006107499190611016565b670de0b6b3a764000061075c9190610ece565b90506702c68af0bb140000811161077b576702c68af0bb14000061077d565b805b935050505090565b6003818154811061079557600080fd5b90600052602060002090600302016000915090508060000180546107b89061109f565b80601f01602080910402602001604051908101604052809291908181526020018280546107e49061109f565b80156108315780601f1061080657610100808354040283529160200191610831565b820191906000526020600020905b81548152906001019060200180831161081457829003601f168201915b5050505050908060010154908060020160009054906101000a900473ffffffffffffffffffffffffffffffffffffffff16908060020160149054906101000a900460ff16905084565b600073ffffffffffffffffffffffffffffffffffffffff82169050919050565b60006108a58261087a565b9050919050565b6108b58161089a565b82525050565b60006020820190506108d060008301846108ac565b92915050565b600080fd5b6000819050919050565b6108ee816108db565b81146108f957600080fd5b50565b60008135905061090b816108e5565b92915050565b600060208284031215610927576109266108d6565b5b6000610935848285016108fc565b91505092915050565b610947816108db565b82525050565b6000602082019050610962600083018461093e565b92915050565b600081519050919050565b600082825260208201905092915050565b60005b838110156109a2578082015181840152602081019050610987565b838111156109b1576000848401525b50505050565b6000601f19601f8301169050919050565b60006109d382610968565b6109dd8185610973565b93506109ed818560208601610984565b6109f6816109b7565b840191505092915050565b60008115159050919050565b610a1681610a01565b82525050565b60006080820190508181036000830152610a3681876109c8565b9050610a45602083018661093e565b610a5260408301856108ac565b610a5f6060830184610a0d565b95945050505050565b7f4c612076656e74652061757820656e636865726573206e27612070617320656e60008201527f636f726520636f6d6d656e636500000000000000000000000000000000000000602082015250565b6000610ac4602d83610973565b9150610acf82610a68565b604082019050919050565b60006020820190508181036000830152610af381610ab7565b9050919050565b7f4e487b7100000000000000000000000000000000000000000000000000000000600052601160045260246000fd5b6000610b34826108db565b9150610b3f836108db565b9250827fffffffffffffffffffffffffffffffffffffffffffffffffffffffffffffffff03821115610b7457610b73610afa565b5b828201905092915050565b7f4c612076656e74652061757820656e63686572657320657374207465726d696e60008201527f6565000000000000000000000000000000000000000000000000000000000000602082015250565b6000610bdb602283610973565b9150610be682610b7f565b604082019050919050565b60006020820190508181036000830152610c0a81610bce565b9050919050565b7f496e6469636520642761727469636c65206e6f6e2076616c6964650000000000600082015250565b6000610c47601b83610973565b9150610c5282610c11565b602082019050919050565b60006020820190508181036000830152610c7681610c3a565b9050919050565b7f4e487b7100000000000000000000000000000000000000000000000000000000600052603260045260246000fd5b7f4c2761727469636c65206573742064656a61206665726d650000000000000000600082015250565b6000610ce2601883610973565b9150610ced82610cac565b602082019050919050565b60006020820190508181036000830152610d1181610cd5565b9050919050565b7f4c65206d6f6e74616e74206465206c27656e636865726520646f69742065747260008201527f65207375706572696575722061207a65726f0000000000000000000000000000602082015250565b6000610d74603283610973565b9150610d7f82610d18565b604082019050919050565b60006020820190508181036000830152610da381610d67565b9050919050565b7f4c65206d6f6e74616e74206465206c27656e63686572652065737420696e666560008201527f726965757220617520707269782061637475656c000000000000000000000000602082015250565b6000610e06603483610973565b9150610e1182610daa565b604082019050919050565b60006020820190508181036000830152610e3581610df9565b9050919050565b7f5365756c206c6520636f6d6d697373616972652d70726973657572207065757460008201527f20617070656c657220636574746520666f6e6374696f6e000000000000000000602082015250565b6000610e98603783610973565b9150610ea382610e3c565b604082019050919050565b60006020820190508181036000830152610ec781610e8b565b9050919050565b6000610ed9826108db565b9150610ee4836108db565b925082821015610ef757610ef6610afa565b5b828203905092915050565b7f546f7573206c65732061727469636c6573206f6e74206574652076656e647573600082015250565b6000610f38602083610973565b9150610f4382610f02565b602082019050919050565b60006020820190508181036000830152610f6781610f2b565b9050919050565b6000610f79826108db565b91507fffffffffffffffffffffffffffffffffffffffffffffffffffffffffffffffff8203610fab57610faa610afa565b5b600182019050919050565b7f4e487b7100000000000000000000000000000000000000000000000000000000600052601260045260246000fd5b6000610ff0826108db565b9150610ffb836108db565b92508261100b5761100a610fb6565b5b828204905092915050565b6000611021826108db565b915061102c836108db565b9250817fffffffffffffffffffffffffffffffffffffffffffffffffffffffffffffffff048311821515161561106557611064610afa565b5b828202905092915050565b7f4e487b7100000000000000000000000000000000000000000000000000000000600052602260045260246000fd5b600060028204905060018216806110b757607f821691505b6020821081036110ca576110c9611070565b5b5091905056fea26469706673582212205429854ef5fa592fe614922c803b86862553f7142da0cba8c3eefe0301d1d94464736f6c634300080d0033",
  "immutableReferences": {},
  "source": "// SPDX-License-Identifier: MIT\npragma solidity ^0.8.0;\n\ncontract DutchAuction {\n    // adresse du commissaire-priseur\n    address public auctioneer;\n\n    // indice de l'article actuellement en vente\n    uint public currentArticleIndex;\n\n    // moment o la vente aux enchres a commenc\n    uint public auctionStartTime;\n\n    // dure totale de la vente aux enchres en secondes (ici, 1 heure)\n    uint public constant AUCTION_DURATION = 3600;\n\n    // prix initial de l'article en vente\n    uint public constant STARTING_PRICE = 1 ether;\n\n    // montant de la diminution de prix par unit de temps\n    uint public constant PRICE_DECREMENT = 0.1 ether;\n\n    // prix de rserve en dessous duquel la vente est automatiquement ferme\n    uint public constant RESERVE_PRICE = 0.2 ether;\n\n    // structure reprsentant chaque article en vente\n    struct Article {\n        string name;\n        // prix actuel de l'article\n        uint currentPrice;\n        // adresse de l'enchrisseur gagnant\n        address winningBidder;\n        // la vente de l'article est ferme ou non\n        bool closed;\n    }\n\n    //pour stocke les informations sur tous les articles en vente\n    Article[] public articles;\n\n    // evnement signalant qu'une enchre a t place\n    event BidPlaced(uint indexed articleIndex, address indexed bidder, uint amount);\n\n    // modificateur limitant l'accs  certaines fonctions au seul commissaire-priseur\n    modifier onlyAuctioneer() {\n        require(msg.sender == auctioneer, \"Seul le commissaire-priseur peut appeler cette fonction\");\n        _;\n    }\n\n    // modificateur vrifiant si la vente aux enchres est en cours\n    modifier auctionOpen() {\n        require(block.timestamp >= auctionStartTime, \"La vente aux encheres n'a pas encore commence\");\n        require(block.timestamp < auctionStartTime + AUCTION_DURATION, \"La vente aux encheres est terminee\");\n        _;\n    }\n\n    // modificateur vrifiant si un article particulier est encore ouvert  la vente\n    modifier articleOpen(uint articleIndex) {\n        require(articleIndex < articles.length, \"Indice d'article non valide\");\n        require(!articles[articleIndex].closed, \"L'article est deja ferme\");\n        _;\n    }\n\n    // constructeur initialisant le contrat\n    constructor() {\n        auctioneer = msg.sender;\n        auctionStartTime = block.timestamp;\n\n        // ajouter vos articles  la vente\n        articles.push(Article(\"Article 1\", STARTING_PRICE, address(0), false));\n        articles.push(Article(\"Article 2\", STARTING_PRICE, address(0), false));\n\n        // initialiser l'index de l'article actuel  0\n        currentArticleIndex = 0;\n    }\n\n    // fonction renvoyant le prix actuel de l'article\n    function getCurrentPrice() public view returns (uint) {\n        uint elapsedTime = block.timestamp - auctionStartTime;\n\n        // diminuer le prix toutes les 60 secondes\n        uint decrements = elapsedTime / 60;\n\n        // calculer le prix actuel en fonction du temps coul\n        uint currentPrice = STARTING_PRICE - (PRICE_DECREMENT * decrements);\n\n        // retourner le prix actuel, mais au moins le prix de rserve\n        return currentPrice > RESERVE_PRICE ? currentPrice : RESERVE_PRICE;\n    }\n\n    // fonction permettant  un enchrisseur de placer une enchre\n    function placeBid(uint articleIndex) external payable auctionOpen articleOpen(articleIndex) {\n        require(msg.value > 0, \"Le montant de l'enchere doit etre superieur a zero\");\n\n        // obtenir le prix actuel de l'article\n        uint currentPrice = getCurrentPrice();\n\n        // vrifier si le montant de l'enchre est suffisant\n        require(msg.value >= currentPrice, \"Le montant de l'enchere est inferieur au prix actuel\");\n\n        // mettre  jour les informations de l article et signaler l'enchere placee\n        articles[articleIndex].winningBidder = msg.sender;\n        articles[articleIndex].closed = true;\n\n        emit BidPlaced(articleIndex, msg.sender, msg.value);\n    }\n\n    // fonction permettant au commissaire-priseur de passer  l'article suivant\n    function moveToNextArticle() external onlyAuctioneer {\n        // vrifier si il reste des articles  vendre\n        require(currentArticleIndex < articles.length - 1, \"Tous les articles ont ete vendus\");\n\n        // passer a l article suivant et mettre  jour ses paramtres\n        currentArticleIndex++;\n        articles[currentArticleIndex].currentPrice = getCurrentPrice();\n        articles[currentArticleIndex].closed = false;\n    }\n}\n",
  "sourcePath": "/home/fouad/MASTER2/IOT_Duvallet/dutch-auction/contracts/DutchAuction.sol",
  "compiler": {
    "name": "solc",
    "version": "0.8.13+commit.abaa5c0e.Emscripten.clang"
  },
  "schemaVersion": "3.4.16",
  "updatedAt": "2024-01-12T00:51:54.222Z",
  "networkType": "ethereum",
  "devdoc": {
    "kind": "dev",
    "methods": {},
    "version": 1
  },
  "userdoc": {
    "kind": "user",
    "methods": {},
    "version": 1
  }
}